{
  "address": "0x780598BE78e696A1e9cBab5b52dC7dad3F79f5A7",
  "abi": [
    {
      "inputs": [
        {
          "internalType": "address",
          "name": "_pythContract",
          "type": "address"
        },
        {
          "internalType": "address",
          "name": "_oftToken",
          "type": "address"
        },
        {
          "internalType": "address",
          "name": "_owner",
          "type": "address"
        }
      ],
      "stateMutability": "nonpayable",
      "type": "constructor"
    },
    {
      "inputs": [
        {
          "internalType": "address",
          "name": "owner",
          "type": "address"
        }
      ],
      "name": "OwnableInvalidOwner",
      "type": "error"
    },
    {
      "inputs": [
        {
          "internalType": "address",
          "name": "account",
          "type": "address"
        }
      ],
      "name": "OwnableUnauthorizedAccount",
      "type": "error"
    },
    {
      "inputs": [],
      "name": "ReentrancyGuardReentrantCall",
      "type": "error"
    },
    {
      "anonymous": false,
      "inputs": [
        {
          "indexed": true,
          "internalType": "uint256",
          "name": "orderId",
          "type": "uint256"
        },
        {
          "indexed": true,
          "internalType": "address",
          "name": "user",
          "type": "address"
        }
      ],
      "name": "OrderCancelled",
      "type": "event"
    },
    {
      "anonymous": false,
      "inputs": [
        {
          "indexed": true,
          "internalType": "uint256",
          "name": "orderId",
          "type": "uint256"
        },
        {
          "indexed": true,
          "internalType": "address",
          "name": "user",
          "type": "address"
        },
        {
          "indexed": false,
          "internalType": "uint256",
          "name": "amount",
          "type": "uint256"
        },
        {
          "indexed": false,
          "internalType": "uint32",
          "name": "dstEid",
          "type": "uint32"
        },
        {
          "indexed": false,
          "internalType": "bytes32",
          "name": "priceFeedId",
          "type": "bytes32"
        },
        {
          "indexed": false,
          "internalType": "int64",
          "name": "targetPrice",
          "type": "int64"
        },
        {
          "indexed": false,
          "internalType": "enum ConditionalBridge.ConditionType",
          "name": "conditionType",
          "type": "uint8"
        }
      ],
      "name": "OrderCreated",
      "type": "event"
    },
    {
      "anonymous": false,
      "inputs": [
        {
          "indexed": true,
          "internalType": "uint256",
          "name": "orderId",
          "type": "uint256"
        },
        {
          "indexed": true,
          "internalType": "address",
          "name": "executor",
          "type": "address"
        },
        {
          "indexed": false,
          "internalType": "int64",
          "name": "executionPrice",
          "type": "int64"
        }
      ],
      "name": "OrderExecuted",
      "type": "event"
    },
    {
      "anonymous": false,
      "inputs": [
        {
          "indexed": true,
          "internalType": "uint256",
          "name": "orderId",
          "type": "uint256"
        }
      ],
      "name": "OrderExpired",
      "type": "event"
    },
    {
      "anonymous": false,
      "inputs": [
        {
          "indexed": true,
          "internalType": "address",
          "name": "previousOwner",
          "type": "address"
        },
        {
          "indexed": true,
          "internalType": "address",
          "name": "newOwner",
          "type": "address"
        }
      ],
      "name": "OwnershipTransferred",
      "type": "event"
    },
    {
      "inputs": [],
      "name": "BTC_USD_PRICE_ID",
      "outputs": [
        {
          "internalType": "bytes32",
          "name": "",
          "type": "bytes32"
        }
      ],
      "stateMutability": "view",
      "type": "function"
    },
    {
      "inputs": [],
      "name": "ETH_USD_PRICE_ID",
      "outputs": [
        {
          "internalType": "bytes32",
          "name": "",
          "type": "bytes32"
        }
      ],
      "stateMutability": "view",
      "type": "function"
    },
    {
      "inputs": [],
      "name": "EXECUTOR_REWARD_BPS",
      "outputs": [
        {
          "internalType": "uint256",
          "name": "",
          "type": "uint256"
        }
      ],
      "stateMutability": "view",
      "type": "function"
    },
    {
      "inputs": [
        {
          "internalType": "uint256",
          "name": "orderId",
          "type": "uint256"
        }
      ],
      "name": "cancelOrder",
      "outputs": [],
      "stateMutability": "nonpayable",
      "type": "function"
    },
    {
      "inputs": [
        {
          "internalType": "uint256",
          "name": "orderId",
          "type": "uint256"
        }
      ],
      "name": "checkOrderCondition",
      "outputs": [
        {
          "internalType": "bool",
          "name": "met",
          "type": "bool"
        },
        {
          "internalType": "int64",
          "name": "currentPrice",
          "type": "int64"
        }
      ],
      "stateMutability": "view",
      "type": "function"
    },
    {
      "inputs": [
        {
          "internalType": "uint256",
          "name": "amount",
          "type": "uint256"
        },
        {
          "internalType": "uint32",
          "name": "dstEid",
          "type": "uint32"
        },
        {
          "internalType": "bytes32",
          "name": "priceFeedId",
          "type": "bytes32"
        },
        {
          "internalType": "int64",
          "name": "targetPrice",
          "type": "int64"
        },
        {
          "internalType": "enum ConditionalBridge.ConditionType",
          "name": "conditionType",
          "type": "uint8"
        },
        {
          "internalType": "uint256",
          "name": "expiryDuration",
          "type": "uint256"
        },
        {
          "internalType": "bytes",
          "name": "lzOptions",
          "type": "bytes"
        }
      ],
      "name": "createOrder",
      "outputs": [
        {
          "internalType": "uint256",
          "name": "orderId",
          "type": "uint256"
        }
      ],
      "stateMutability": "nonpayable",
      "type": "function"
    },
    {
      "inputs": [
        {
          "internalType": "uint256",
          "name": "orderId",
          "type": "uint256"
        },
        {
          "internalType": "bytes[]",
          "name": "priceUpdate",
          "type": "bytes[]"
        }
      ],
      "name": "executeOrder",
      "outputs": [],
      "stateMutability": "payable",
      "type": "function"
    },
    {
      "inputs": [
        {
          "internalType": "bytes32",
          "name": "priceFeedId",
          "type": "bytes32"
        }
      ],
      "name": "getCurrentPrice",
      "outputs": [
        {
          "internalType": "int64",
          "name": "price",
          "type": "int64"
        },
        {
          "internalType": "int32",
          "name": "expo",
          "type": "int32"
        },
        {
          "internalType": "uint256",
          "name": "timestamp",
          "type": "uint256"
        }
      ],
      "stateMutability": "view",
      "type": "function"
    },
    {
      "inputs": [
        {
          "internalType": "uint256",
          "name": "orderId",
          "type": "uint256"
        }
      ],
      "name": "markExpired",
      "outputs": [],
      "stateMutability": "nonpayable",
      "type": "function"
    },
    {
      "inputs": [],
      "name": "oftToken",
      "outputs": [
        {
          "internalType": "contract IMyOFT",
          "name": "",
          "type": "address"
        }
      ],
      "stateMutability": "view",
      "type": "function"
    },
    {
      "inputs": [],
      "name": "orderCount",
      "outputs": [
        {
          "internalType": "uint256",
          "name": "",
          "type": "uint256"
        }
      ],
      "stateMutability": "view",
      "type": "function"
    },
    {
      "inputs": [
        {
          "internalType": "uint256",
          "name": "",
          "type": "uint256"
        }
      ],
      "name": "orders",
      "outputs": [
        {
          "internalType": "uint256",
          "name": "orderId",
          "type": "uint256"
        },
        {
          "internalType": "address",
          "name": "user",
          "type": "address"
        },
        {
          "internalType": "uint256",
          "name": "amount",
          "type": "uint256"
        },
        {
          "internalType": "uint32",
          "name": "dstEid",
          "type": "uint32"
        },
        {
          "internalType": "bytes32",
          "name": "priceFeedId",
          "type": "bytes32"
        },
        {
          "internalType": "int64",
          "name": "targetPrice",
          "type": "int64"
        },
        {
          "internalType": "enum ConditionalBridge.ConditionType",
          "name": "conditionType",
          "type": "uint8"
        },
        {
          "internalType": "enum ConditionalBridge.OrderStatus",
          "name": "status",
          "type": "uint8"
        },
        {
          "internalType": "uint256",
          "name": "createdAt",
          "type": "uint256"
        },
        {
          "internalType": "uint256",
          "name": "expiresAt",
          "type": "uint256"
        },
        {
          "internalType": "bytes",
          "name": "lzOptions",
          "type": "bytes"
        }
      ],
      "stateMutability": "view",
      "type": "function"
    },
    {
      "inputs": [],
      "name": "owner",
      "outputs": [
        {
          "internalType": "address",
          "name": "",
          "type": "address"
        }
      ],
      "stateMutability": "view",
      "type": "function"
    },
    {
      "inputs": [],
      "name": "pyth",
      "outputs": [
        {
          "internalType": "contract IPyth",
          "name": "",
          "type": "address"
        }
      ],
      "stateMutability": "view",
      "type": "function"
    },
    {
      "inputs": [],
      "name": "renounceOwnership",
      "outputs": [],
      "stateMutability": "nonpayable",
      "type": "function"
    },
    {
      "inputs": [
        {
          "internalType": "address",
          "name": "newOwner",
          "type": "address"
        }
      ],
      "name": "transferOwnership",
      "outputs": [],
      "stateMutability": "nonpayable",
      "type": "function"
    },
    {
      "stateMutability": "payable",
      "type": "receive"
    }
  ],
  "transactionHash": "0x9b55a57a43a6edb7bd4c3bbba7e564c17d004ef3ed90bbcb396c6a38cee48433",
  "args": [
    "0xa2aa501b19aff244d90cc15a4cf739d2725b5729",
    "0x1498FECa6fb7525616C369592440B6E8325C3D6D",
    "0xfEC6BB7506B4c06ddA315c8C12ED030eb05bdE28"
  ],
  "numDeployments": 1,
  "solcInputHash": "3dc33fecd768354352cfc8f1f55d7e95",
  "bytecode": "0x60c06040523480156200001157600080fd5b50604051620020a2380380620020a28339810160408190526200003491620001ab565b806001600160a01b0381166200006557604051631e4fbdf760e01b8152600060048201526024015b60405180910390fd5b62000070816200013e565b50600180556001600160a01b038316620000cd5760405162461bcd60e51b815260206004820152601460248201527f496e76616c69642050797468206164647265737300000000000000000000000060448201526064016200005c565b6001600160a01b038216620001255760405162461bcd60e51b815260206004820152601360248201527f496e76616c6964204f465420616464726573730000000000000000000000000060448201526064016200005c565b506001600160a01b039182166080521660a052620001f5565b600080546001600160a01b038381166001600160a01b0319831681178455604051919092169283917f8be0079c531659141344cd1fd0a4f28419497f9722a3daafe3b4186f6b6457e09190a35050565b80516001600160a01b0381168114620001a657600080fd5b919050565b600080600060608486031215620001c157600080fd5b620001cc846200018e565b9250620001dc602085016200018e565b9150620001ec604085016200018e565b90509250925092565b60805160a051611e4162000261600039600081816102dc015281816104c001528181610c0501528181610df101528181610fd501526111db01526000818161037f015281816107bc0152818161092201528181610a0d01528181610a9b01526114180152611e416000f3fe6080604052600436106100f75760003560e01c806377fd00c51161008a578063f2fde38b11610059578063f2fde38b146102fe578063f6fb25701461031e578063f82cc4f514610358578063f98d06f01461036d57600080fd5b806377fd00c5146102415780638da5cb5b14610261578063a85c38ef14610293578063b2abb70f146102ca57600080fd5b806333e7dddb116100c657806333e7dddb146101c3578063514fcac7146101d85780635bbf7491146101f8578063715018a61461022c57600080fd5b8063027bbe22146101035780630ce2f7e11461014a578063161e444e1461016a5780632453ffa8146101ad57600080fd5b366100fe57005b600080fd5b34801561010f57600080fd5b506101377fe62df6c8b4a85fe1a67db44dc12de5db330f7ac66b72dc658afedf0f4a415b4381565b6040519081526020015b60405180910390f35b34801561015657600080fd5b506101376101653660046115e8565b6103a1565b34801561017657600080fd5b5061018a61018536600461168d565b6107b4565b6040805160079490940b845260039290920b602084015290820152606001610141565b3480156101b957600080fd5b5061013760035481565b6101d66101d13660046116a6565b610863565b005b3480156101e457600080fd5b506101d66101f336600461168d565b610f01565b34801561020457600080fd5b506101377fff61491a931112ddf1bd8147cd1b641375f79f5825126d665480874634fd0ace81565b34801561023857600080fd5b506101d66110b5565b34801561024d57600080fd5b506101d661025c36600461168d565b6110c9565b34801561026d57600080fd5b506000546001600160a01b03165b6040516001600160a01b039091168152602001610141565b34801561029f57600080fd5b506102b36102ae36600461168d565b6112b0565b6040516101419b9a99989796959493929190611795565b3480156102d657600080fd5b5061027b7f000000000000000000000000000000000000000000000000000000000000000081565b34801561030a57600080fd5b506101d6610319366004611826565b6113af565b34801561032a57600080fd5b5061033e61033936600461168d565b6113ea565b60408051921515835260079190910b602083015201610141565b34801561036457600080fd5b50610137600a81565b34801561037957600080fd5b5061027b7f000000000000000000000000000000000000000000000000000000000000000081565b60006103ab6114e9565b600089116103f55760405162461bcd60e51b81526020600482015260126024820152710416d6f756e74206d757374206265203e20360741b60448201526064015b60405180910390fd5b60008660070b136104485760405162461bcd60e51b815260206004820152601860248201527f546172676574207072696365206d757374206265203e2030000000000000000060448201526064016103ec565b8763ffffffff1660000361049e5760405162461bcd60e51b815260206004820152601760248201527f496e76616c69642064657374696e6174696f6e2045494400000000000000000060448201526064016103ec565b6040516323b872dd60e01b8152336004820152306024820152604481018a90527f00000000000000000000000000000000000000000000000000000000000000006001600160a01b0316906323b872dd906064016020604051808303816000875af1158015610511573d6000803e3d6000fd5b505050506040513d601f19601f820116820180604052508101906105359190611856565b6105515760405162461bcd60e51b81526004016103ec90611878565b60038054906000610561836118b7565b9190505590506000808511610577576000610581565b61058185426118d0565b9050604051806101600160405280838152602001336001600160a01b031681526020018b81526020018a63ffffffff1681526020018981526020018860070b81526020018760018111156105d7576105d7611725565b81526020016000815260200142815260200182815260200185858080601f0160208091040260200160405190810160405280939291908181526020018383808284376000920182905250939094525050848152600260208181526040928390208551815590850151600180830180546001600160a01b0319166001600160a01b03909316929092179091559285015191810191909155606084015160038201805463ffffffff191663ffffffff9092169190911790556080840151600482015560a084015160058201805467ffffffffffffffff19811667ffffffffffffffff909316928317825560c08701519395509293909268ffffffffffffffffff191690911790600160401b9084908111156106f2576106f2611725565b021790555060e082015160058201805460ff60481b1916600160481b83600381111561072057610720611725565b02179055506101008201516006820155610120820151600782015561014082015160088201906107509082611989565b50905050336001600160a01b0316827fd21acf11a178198c7e78ec0e59d157e83358a71118dab700cf75e87f5c3ddd6f8c8c8c8c8c604051610796959493929190611a49565b60405180910390a3506107a860018055565b98975050505050505050565b6000806000807f00000000000000000000000000000000000000000000000000000000000000006001600160a01b03166396834ad3866040518263ffffffff1660e01b815260040161080891815260200190565b608060405180830381865afa158015610825573d6000803e3d6000fd5b505050506040513d601f19601f820116820180604052508101906108499190611aa1565b805160408201516060909201519097919650945092505050565b61086b6114e9565b6000838152600260205260408120906005820154600160481b900460ff16600381111561089a5761089a611725565b146108b75760405162461bcd60e51b81526004016103ec90611b23565b600781015415806108cc575080600701544211155b6109085760405162461bcd60e51b815260206004820152600d60248201526c13dc99195c88195e1c1a5c9959609a1b60448201526064016103ec565b60405163d47eed4560e01b81526000906001600160a01b037f0000000000000000000000000000000000000000000000000000000000000000169063d47eed45906109599087908790600401611b77565b602060405180830381865afa158015610976573d6000803e3d6000fd5b505050506040513d601f19601f8201168201806040525081019061099a9190611c13565b9050803410156109f65760405162461bcd60e51b815260206004820152602160248201527f496e73756666696369656e742066656520666f722070726963652075706461746044820152606560f81b60648201526084016103ec565b604051631df3cbc560e31b81526001600160a01b037f0000000000000000000000000000000000000000000000000000000000000000169063ef9e5e28908390610a469088908890600401611b77565b6000604051808303818588803b158015610a5f57600080fd5b505af1158015610a73573d6000803e3d6000fd5b5050505060048381015460405163052571af60e51b815291820152603c6024820152600091507f00000000000000000000000000000000000000000000000000000000000000006001600160a01b03169063a4ae35e090604401608060405180830381865afa158015610aea573d6000803e3d6000fd5b505050506040513d601f19601f82011682018060405250810190610b0e9190611aa1565b90506000806005850154600160401b900460ff166001811115610b3357610b33611725565b03610b4e575060058301548151600791820b910b1215610b60565b5060058301548151600791820b910b13155b80610bad5760405162461bcd60e51b815260206004820152601760248201527f507269636520636f6e646974696f6e206e6f74206d657400000000000000000060448201526064016103ec565b6000612710600a8660020154610bc39190611c2c565b610bcd9190611c43565b90506000818660020154610be19190611c65565b90508115610cbf5760405163a9059cbb60e01b8152336004820152602481018390527f00000000000000000000000000000000000000000000000000000000000000006001600160a01b03169063a9059cbb906044016020604051808303816000875af1158015610c56573d6000803e3d6000fd5b505050506040513d601f19601f82011682018060405250810190610c7a9190611856565b610cbf5760405162461bcd60e51b815260206004820152601660248201527514995dd85c99081d1c985b9cd9995c8819985a5b195960521b60448201526064016103ec565b60018601546040805160e081018252600389015463ffffffff1681526001600160a01b039092166020830181905290820183905260608201839052600888018054919260009290916080830191610d15906118ff565b80601f0160208091040260200160405190810160405280929190818152602001828054610d41906118ff565b8015610d8e5780601f10610d6357610100808354040283529160200191610d8e565b820191906000526020600020905b815481529060010190602001808311610d7157829003601f168201915b50505050508152602001604051806020016040528060008152508152602001604051806020016040528060008152508152509050600060405180604001604052808934610ddb9190611c65565b8152600060209091015290506001600160a01b037f00000000000000000000000000000000000000000000000000000000000000001663c7c7f5b3610e208a34611c65565b60018c01546040516001600160e01b031960e085901b168152610e5391879187916001600160a01b031690600401611c78565b60c06040518083038185885af1158015610e71573d6000803e3d6000fd5b50505050506040513d601f19601f82011682018060405250810190610e969190611d83565b505060058901805460ff60481b1916600160481b17905586516040805160079290920b82525133918e917fd7bcec6428501bf3d6ad877e5b7d715a142cf3bee1928c3674312df9ebcb6d239181900360200190a3505050505050505050610efc60018055565b505050565b610f096114e9565b600081815260026020526040902060018101546001600160a01b03163314610f655760405162461bcd60e51b815260206004820152600f60248201526e2737ba1037b93232b91037bbb732b960891b60448201526064016103ec565b60006005820154600160481b900460ff166003811115610f8757610f87611725565b14610fa45760405162461bcd60e51b81526004016103ec90611b23565b6001810154600282015460405163a9059cbb60e01b81526001600160a01b03928316600482015260248101919091527f00000000000000000000000000000000000000000000000000000000000000009091169063a9059cbb906044016020604051808303816000875af1158015611020573d6000803e3d6000fd5b505050506040513d601f19601f820116820180604052508101906110449190611856565b6110605760405162461bcd60e51b81526004016103ec90611878565b60058101805460ff60481b19166902000000000000000000179055604051339083907fc0362da6f2ff36b382b34aec0814f6b3cdf89f5ef282a1d1f114d0c0b036d59690600090a3506110b260018055565b50565b6110bd611513565b6110c76000611540565b565b6000818152600260205260408120906005820154600160481b900460ff1660038111156110f8576110f8611725565b146111155760405162461bcd60e51b81526004016103ec90611b23565b600081600701541161115f5760405162461bcd60e51b81526020600482015260136024820152724f7264657220686173206e6f2065787069727960681b60448201526064016103ec565b806007015442116111aa5760405162461bcd60e51b815260206004820152601560248201527413dc99195c881b9bdd08195e1c1a5c9959081e595d605a1b60448201526064016103ec565b6001810154600282015460405163a9059cbb60e01b81526001600160a01b03928316600482015260248101919091527f00000000000000000000000000000000000000000000000000000000000000009091169063a9059cbb906044016020604051808303816000875af1158015611226573d6000803e3d6000fd5b505050506040513d601f19601f8201168201806040525081019061124a9190611856565b6112665760405162461bcd60e51b81526004016103ec90611878565b60058101805460ff60481b1916690300000000000000000017905560405182907f1ad308dc7017610c82d08084545f7176df5e2f08f078c3c8f8926cd7e555551490600090a25050565b600260208190526000918252604090912080546001820154928201546003830154600484015460058501546006860154600780880154600889018054989a6001600160a01b031699979863ffffffff9097169795969285900b9560ff600160401b8704811696600160481b900416949390919061132c906118ff565b80601f0160208091040260200160405190810160405280929190818152602001828054611358906118ff565b80156113a55780601f1061137a576101008083540402835291602001916113a5565b820191906000526020600020905b81548152906001019060200180831161138857829003601f168201915b505050505090508b565b6113b7611513565b6001600160a01b0381166113e157604051631e4fbdf760e01b8152600060048201526024016103ec565b6110b281611540565b60008181526002602052604080822060048082015492516396834ad360e01b815290810192909252829182907f00000000000000000000000000000000000000000000000000000000000000006001600160a01b0316906396834ad390602401608060405180830381865afa158015611467573d6000803e3d6000fd5b505050506040513d601f19601f8201168201806040525081019061148b9190611aa1565b80519350905060006005830154600160401b900460ff1660018111156114b3576114b3611725565b036114cf576005820154600790810b9084900b121593506114e2565b6005820154600790810b9084900b131593505b5050915091565b60026001540361150c57604051633ee5aeb560e01b815260040160405180910390fd5b6002600155565b6000546001600160a01b031633146110c75760405163118cdaa760e01b81523360048201526024016103ec565b600080546001600160a01b038381166001600160a01b0319831681178455604051919092169283917f8be0079c531659141344cd1fd0a4f28419497f9722a3daafe3b4186f6b6457e09190a35050565b8060070b81146110b257600080fd5b60008083601f8401126115b157600080fd5b50813567ffffffffffffffff8111156115c957600080fd5b6020830191508360208285010111156115e157600080fd5b9250929050565b60008060008060008060008060e0898b03121561160457600080fd5b88359750602089013563ffffffff8116811461161f57600080fd5b965060408901359550606089013561163681611590565b945060808901356002811061164a57600080fd5b935060a0890135925060c089013567ffffffffffffffff81111561166d57600080fd5b6116798b828c0161159f565b999c989b5096995094979396929594505050565b60006020828403121561169f57600080fd5b5035919050565b6000806000604084860312156116bb57600080fd5b83359250602084013567ffffffffffffffff808211156116da57600080fd5b818601915086601f8301126116ee57600080fd5b8135818111156116fd57600080fd5b8760208260051b850101111561171257600080fd5b6020830194508093505050509250925092565b634e487b7160e01b600052602160045260246000fd5b6002811061174b5761174b611725565b9052565b6000815180845260005b8181101561177557602081850181015186830182015201611759565b506000602082860101526020601f19601f83011685010191505092915050565b8b81526001600160a01b038b166020820152604081018a905263ffffffff8916606082015260808101889052600787900b60a082015260006101606117dd60c084018961173b565b600487106117ed576117ed611725565b8660e08401528561010084015284610120840152806101408401526118148184018561174f565b9e9d5050505050505050505050505050565b60006020828403121561183857600080fd5b81356001600160a01b038116811461184f57600080fd5b9392505050565b60006020828403121561186857600080fd5b8151801515811461184f57600080fd5b6020808252600f908201526e151c985b9cd9995c8819985a5b1959608a1b604082015260600190565b634e487b7160e01b600052601160045260246000fd5b6000600182016118c9576118c96118a1565b5060010190565b808201808211156118e3576118e36118a1565b92915050565b634e487b7160e01b600052604160045260246000fd5b600181811c9082168061191357607f821691505b60208210810361193357634e487b7160e01b600052602260045260246000fd5b50919050565b601f821115610efc576000816000526020600020601f850160051c810160208610156119625750805b601f850160051c820191505b818110156119815782815560010161196e565b505050505050565b815167ffffffffffffffff8111156119a3576119a36118e9565b6119b7816119b184546118ff565b84611939565b602080601f8311600181146119ec57600084156119d45750858301515b600019600386901b1c1916600185901b178555611981565b600085815260208120601f198616915b82811015611a1b578886015182559484019460019091019084016119fc565b5085821015611a395787850151600019600388901b60f8161c191681555b5050505050600190811b01905550565b85815263ffffffff8516602082015260408101849052600783900b606082015260a08101611a7a608083018461173b565b9695505050505050565b805167ffffffffffffffff81168114611a9c57600080fd5b919050565b600060808284031215611ab357600080fd5b6040516080810181811067ffffffffffffffff82111715611ad657611ad66118e9565b6040528251611ae481611590565b8152611af260208401611a84565b602082015260408301518060030b8114611b0b57600080fd5b60408201526060928301519281019290925250919050565b6020808252601190820152704f72646572206e6f742070656e64696e6760781b604082015260600190565b81835281816020850137506000828201602090810191909152601f909101601f19169091010190565b60208082528181018390526000906040600585901b8401810190840186845b87811015611c0657868403603f190183528135368a9003601e19018112611bbc57600080fd5b8901858101903567ffffffffffffffff811115611bd857600080fd5b803603821315611be757600080fd5b611bf2868284611b4e565b955050509184019190840190600101611b96565b5091979650505050505050565b600060208284031215611c2557600080fd5b5051919050565b80820281158282048414176118e3576118e36118a1565b600082611c6057634e487b7160e01b600052601260045260246000fd5b500490565b818103818111156118e3576118e36118a1565b6080815263ffffffff8451166080820152602084015160a0820152604084015160c0820152606084015160e08201526000608085015160e0610100840152611cc461016084018261174f565b905060a0860151607f198085840301610120860152611ce3838361174f565b925060c08801519150808584030161014086015250611d02828261174f565b92505050611d1d602083018580518252602090810151910152565b6001600160a01b0383166060830152949350505050565b600060408284031215611d4657600080fd5b6040516040810181811067ffffffffffffffff82111715611d6957611d696118e9565b604052825181526020928301519281019290925250919050565b60008082840360c0811215611d9757600080fd5b6080811215611da557600080fd5b506040516060810181811067ffffffffffffffff82111715611dc957611dc96118e9565b60405283518152611ddc60208501611a84565b6020820152611dee8560408601611d34565b60408201529150611e028460808501611d34565b9050925092905056fea2646970667358221220faa3dd4ca39f4ae13415c77a819b452e063984c06b20b30658e147f573e090ae64736f6c63430008160033",
  "devdoc": {
    "details": "Integrates Pyth Network price feeds with LayerZero OFT bridging",
    "errors": {
      "OwnableInvalidOwner(address)": [
        {
          "details": "The owner is not a valid owner account. (eg. `address(0)`)"
        }
      ],
      "OwnableUnauthorizedAccount(address)": [
        {
          "details": "The caller account is not authorized to perform an operation."
        }
      ],
      "ReentrancyGuardReentrantCall()": [
        {
          "details": "Unauthorized reentrant call."
        }
      ]
    },
    "kind": "dev",
    "methods": {
      "cancelOrder(uint256)": {
        "params": {
          "orderId": "Order ID to cancel"
        }
      },
      "checkOrderCondition(uint256)": {
        "params": {
          "orderId": "Order ID to check"
        },
        "returns": {
          "currentPrice": "Current price from Pyth",
          "met": "Whether condition is met"
        }
      },
      "createOrder(uint256,uint32,bytes32,int64,uint8,uint256,bytes)": {
        "params": {
          "amount": "Amount of OFT tokens to bridge",
          "conditionType": "PRICE_ABOVE or PRICE_BELOW",
          "dstEid": "Destination chain endpoint ID (LayerZero)",
          "expiryDuration": "How long the order is valid (in seconds, 0 for no expiry)",
          "lzOptions": "LayerZero send options (gas settings, etc.)",
          "priceFeedId": "Pyth price feed ID to monitor",
          "targetPrice": "Target price (with 8 decimals, e.g., 3800e8 for $3800)"
        }
      },
      "executeOrder(uint256,bytes[])": {
        "details": "Anyone can call this (keeper/bot), executor gets a small reward",
        "params": {
          "orderId": "Order ID to execute",
          "priceUpdate": "Pyth price update data (fetch from Hermes API)"
        }
      },
      "getCurrentPrice(bytes32)": {
        "params": {
          "priceFeedId": "Pyth price feed ID"
        },
        "returns": {
          "expo": "Price exponent",
          "price": "Current price",
          "timestamp": "Price timestamp"
        }
      },
      "markExpired(uint256)": {
        "params": {
          "orderId": "Order ID to mark as expired"
        }
      },
      "owner()": {
        "details": "Returns the address of the current owner."
      },
      "renounceOwnership()": {
        "details": "Leaves the contract without owner. It will not be possible to call `onlyOwner` functions. Can only be called by the current owner. NOTE: Renouncing ownership will leave the contract without an owner, thereby disabling any functionality that is only available to the owner."
      },
      "transferOwnership(address)": {
        "details": "Transfers ownership of the contract to a new account (`newOwner`). Can only be called by the current owner."
      }
    },
    "title": "ConditionalBridge",
    "version": 1
  },
  "userdoc": {
    "kind": "user",
    "methods": {
      "cancelOrder(uint256)": {
        "notice": "Cancel a pending order and return tokens to user"
      },
      "checkOrderCondition(uint256)": {
        "notice": "Check if order condition is currently met (view function)"
      },
      "createOrder(uint256,uint32,bytes32,int64,uint8,uint256,bytes)": {
        "notice": "Create a conditional bridge order"
      },
      "executeOrder(uint256,bytes[])": {
        "notice": "Execute a bridge order when price condition is met"
      },
      "getCurrentPrice(bytes32)": {
        "notice": "Get current price from Pyth feed"
      },
      "markExpired(uint256)": {
        "notice": "Mark expired orders (callable by anyone)"
      }
    },
    "notice": "Enables automated token bridging when price conditions are met",
    "version": 1
  },
  "storageLayout": {
    "storage": [
      {
        "astId": 8,
        "contract": "contracts/ConditionalBridge.sol:ConditionalBridge",
        "label": "_owner",
        "offset": 0,
        "slot": "0",
        "type": "t_address"
      },
      {
        "astId": 266,
        "contract": "contracts/ConditionalBridge.sol:ConditionalBridge",
        "label": "_status",
        "offset": 0,
        "slot": "1",
        "type": "t_uint256"
      },
      {
        "astId": 718,
        "contract": "contracts/ConditionalBridge.sol:ConditionalBridge",
        "label": "orders",
        "offset": 0,
        "slot": "2",
        "type": "t_mapping(t_uint256,t_struct(BridgeOrder)713_storage)"
      },
      {
        "astId": 720,
        "contract": "contracts/ConditionalBridge.sol:ConditionalBridge",
        "label": "orderCount",
        "offset": 0,
        "slot": "3",
        "type": "t_uint256"
      }
    ],
    "types": {
      "t_address": {
        "encoding": "inplace",
        "label": "address",
        "numberOfBytes": "20"
      },
      "t_bytes32": {
        "encoding": "inplace",
        "label": "bytes32",
        "numberOfBytes": "32"
      },
      "t_bytes_storage": {
        "encoding": "bytes",
        "label": "bytes",
        "numberOfBytes": "32"
      },
      "t_enum(ConditionType)683": {
        "encoding": "inplace",
        "label": "enum ConditionalBridge.ConditionType",
        "numberOfBytes": "1"
      },
      "t_enum(OrderStatus)688": {
        "encoding": "inplace",
        "label": "enum ConditionalBridge.OrderStatus",
        "numberOfBytes": "1"
      },
      "t_int64": {
        "encoding": "inplace",
        "label": "int64",
        "numberOfBytes": "8"
      },
      "t_mapping(t_uint256,t_struct(BridgeOrder)713_storage)": {
        "encoding": "mapping",
        "key": "t_uint256",
        "label": "mapping(uint256 => struct ConditionalBridge.BridgeOrder)",
        "numberOfBytes": "32",
        "value": "t_struct(BridgeOrder)713_storage"
      },
      "t_struct(BridgeOrder)713_storage": {
        "encoding": "inplace",
        "label": "struct ConditionalBridge.BridgeOrder",
        "members": [
          {
            "astId": 690,
            "contract": "contracts/ConditionalBridge.sol:ConditionalBridge",
            "label": "orderId",
            "offset": 0,
            "slot": "0",
            "type": "t_uint256"
          },
          {
            "astId": 692,
            "contract": "contracts/ConditionalBridge.sol:ConditionalBridge",
            "label": "user",
            "offset": 0,
            "slot": "1",
            "type": "t_address"
          },
          {
            "astId": 694,
            "contract": "contracts/ConditionalBridge.sol:ConditionalBridge",
            "label": "amount",
            "offset": 0,
            "slot": "2",
            "type": "t_uint256"
          },
          {
            "astId": 696,
            "contract": "contracts/ConditionalBridge.sol:ConditionalBridge",
            "label": "dstEid",
            "offset": 0,
            "slot": "3",
            "type": "t_uint32"
          },
          {
            "astId": 698,
            "contract": "contracts/ConditionalBridge.sol:ConditionalBridge",
            "label": "priceFeedId",
            "offset": 0,
            "slot": "4",
            "type": "t_bytes32"
          },
          {
            "astId": 700,
            "contract": "contracts/ConditionalBridge.sol:ConditionalBridge",
            "label": "targetPrice",
            "offset": 0,
            "slot": "5",
            "type": "t_int64"
          },
          {
            "astId": 703,
            "contract": "contracts/ConditionalBridge.sol:ConditionalBridge",
            "label": "conditionType",
            "offset": 8,
            "slot": "5",
            "type": "t_enum(ConditionType)683"
          },
          {
            "astId": 706,
            "contract": "contracts/ConditionalBridge.sol:ConditionalBridge",
            "label": "status",
            "offset": 9,
            "slot": "5",
            "type": "t_enum(OrderStatus)688"
          },
          {
            "astId": 708,
            "contract": "contracts/ConditionalBridge.sol:ConditionalBridge",
            "label": "createdAt",
            "offset": 0,
            "slot": "6",
            "type": "t_uint256"
          },
          {
            "astId": 710,
            "contract": "contracts/ConditionalBridge.sol:ConditionalBridge",
            "label": "expiresAt",
            "offset": 0,
            "slot": "7",
            "type": "t_uint256"
          },
          {
            "astId": 712,
            "contract": "contracts/ConditionalBridge.sol:ConditionalBridge",
            "label": "lzOptions",
            "offset": 0,
            "slot": "8",
            "type": "t_bytes_storage"
          }
        ],
        "numberOfBytes": "288"
      },
      "t_uint256": {
        "encoding": "inplace",
        "label": "uint256",
        "numberOfBytes": "32"
      },
      "t_uint32": {
        "encoding": "inplace",
        "label": "uint32",
        "numberOfBytes": "4"
      }
    }
  }
}